{
  "_format": "hh-sol-artifact-1",
  "contractName": "Marketplace",
  "sourceName": "backend/contracts/Marketplace.sol",
  "abi": [
    {
      "inputs": [
        {
          "internalType": "uint256",
          "name": "_feePercent",
          "type": "uint256"
        }
      ],
      "stateMutability": "nonpayable",
      "type": "constructor"
    },
    {
      "anonymous": false,
      "inputs": [
        {
          "indexed": false,
          "internalType": "uint256",
          "name": "itemId",
          "type": "uint256"
        },
        {
          "indexed": true,
          "internalType": "address",
          "name": "nft",
          "type": "address"
        },
        {
          "indexed": false,
          "internalType": "uint256",
          "name": "tokenId",
          "type": "uint256"
        },
        {
          "indexed": false,
          "internalType": "uint256",
          "name": "price",
          "type": "uint256"
        },
        {
          "indexed": true,
          "internalType": "address",
          "name": "seller",
          "type": "address"
        },
        {
          "indexed": true,
          "internalType": "address",
          "name": "buyer",
          "type": "address"
        }
      ],
      "name": "Bought",
      "type": "event"
    },
    {
      "anonymous": false,
      "inputs": [
        {
          "indexed": false,
          "internalType": "uint256",
          "name": "itemId",
          "type": "uint256"
        },
        {
          "indexed": true,
          "internalType": "address",
          "name": "nft",
          "type": "address"
        },
        {
          "indexed": false,
          "internalType": "uint256",
          "name": "tokenId",
          "type": "uint256"
        },
        {
          "indexed": false,
          "internalType": "uint256",
          "name": "price",
          "type": "uint256"
        },
        {
          "indexed": true,
          "internalType": "address",
          "name": "seller",
          "type": "address"
        }
      ],
      "name": "Offered",
      "type": "event"
    },
    {
      "inputs": [],
      "name": "feeAccount",
      "outputs": [
        {
          "internalType": "address payable",
          "name": "",
          "type": "address"
        }
      ],
      "stateMutability": "view",
      "type": "function"
    },
    {
      "inputs": [],
      "name": "feePercent",
      "outputs": [
        {
          "internalType": "uint256",
          "name": "",
          "type": "uint256"
        }
      ],
      "stateMutability": "view",
      "type": "function"
    },
    {
      "inputs": [
        {
          "internalType": "uint256",
          "name": "_itemId",
          "type": "uint256"
        }
      ],
      "name": "getTotalPrice",
      "outputs": [
        {
          "internalType": "uint256",
          "name": "",
          "type": "uint256"
        }
      ],
      "stateMutability": "view",
      "type": "function"
    },
    {
      "inputs": [],
      "name": "itemCount",
      "outputs": [
        {
          "internalType": "uint256",
          "name": "",
          "type": "uint256"
        }
      ],
      "stateMutability": "view",
      "type": "function"
    },
    {
      "inputs": [
        {
          "internalType": "uint256",
          "name": "",
          "type": "uint256"
        }
      ],
      "name": "items",
      "outputs": [
        {
          "internalType": "uint256",
          "name": "itemId",
          "type": "uint256"
        },
        {
          "internalType": "contract IERC721",
          "name": "nft",
          "type": "address"
        },
        {
          "internalType": "uint256",
          "name": "tokenId",
          "type": "uint256"
        },
        {
          "internalType": "uint256",
          "name": "price",
          "type": "uint256"
        },
        {
          "internalType": "address payable",
          "name": "seller",
          "type": "address"
        },
        {
          "internalType": "bool",
          "name": "sold",
          "type": "bool"
        }
      ],
      "stateMutability": "view",
      "type": "function"
    },
    {
      "inputs": [
        {
          "internalType": "contract IERC721",
          "name": "_nft",
          "type": "address"
        },
        {
          "internalType": "uint256",
          "name": "_tokenId",
          "type": "uint256"
        },
        {
          "internalType": "uint256",
          "name": "_price",
          "type": "uint256"
        }
      ],
      "name": "makeItem",
      "outputs": [],
      "stateMutability": "nonpayable",
      "type": "function"
    },
    {
      "inputs": [
        {
          "internalType": "uint256",
          "name": "_itemId",
          "type": "uint256"
        }
      ],
      "name": "purchaseItem",
      "outputs": [],
      "stateMutability": "payable",
      "type": "function"
    }
  ],
  "bytecode": "0x60c060405234801561001057600080fd5b506040516111ab3803806111ab83398181016040528101906100329190610094565b60016000819055503373ffffffffffffffffffffffffffffffffffffffff1660808173ffffffffffffffffffffffffffffffffffffffff1660601b815250508060a08181525050506100de565b60008151905061008e816100c7565b92915050565b6000602082840312156100a657600080fd5b60006100b48482850161007f565b91505092915050565b6000819050919050565b6100d0816100bd565b81146100db57600080fd5b50565b60805160601c60a051611097610114600039600081816101e601526102970152600081816101bc01526104cb01526110976000f3fe6080604052600436106100705760003560e01c8063bfb231d21161004e578063bfb231d2146100f6578063ca7dd37514610138578063d38ea5bf14610175578063fa00afc71461019157610070565b806365e17c9d146100755780636bfb0d01146100a05780637fd6f15c146100cb575b600080fd5b34801561008157600080fd5b5061008a6101ba565b6040516100979190610b3e565b60405180910390f35b3480156100ac57600080fd5b506100b56101de565b6040516100c29190610c30565b60405180910390f35b3480156100d757600080fd5b506100e06101e4565b6040516100ed9190610c30565b60405180910390f35b34801561010257600080fd5b5061011d60048036038101906101189190610a1b565b610208565b60405161012f96959493929190610c4b565b60405180910390f35b34801561014457600080fd5b5061015f600480360381019061015a9190610a1b565b610291565b60405161016c9190610c30565b60405180910390f35b61018f600480360381019061018a9190610a1b565b6102f4565b005b34801561019d57600080fd5b506101b860048036038101906101b391906109cc565b6106d0565b005b7f000000000000000000000000000000000000000000000000000000000000000081565b60015481565b7f000000000000000000000000000000000000000000000000000000000000000081565b60026020528060005260406000206000915090508060000154908060010160009054906101000a900473ffffffffffffffffffffffffffffffffffffffff16908060020154908060030154908060040160009054906101000a900473ffffffffffffffffffffffffffffffffffffffff16908060040160149054906101000a900460ff16905086565b600060647f00000000000000000000000000000000000000000000000000000000000000006102c09190610d4a565b60646102cc9190610cf4565b60026000848152602001908152602001600020600301546102ed9190610d7b565b9050919050565b6002600054141561033a576040517f08c379a000000000000000000000000000000000000000000000000000000000815260040161033190610bf0565b60405180910390fd5b6002600081905550600061034d82610291565b9050600060026000848152602001908152602001600020905060008311801561037857506001548311155b6103b7576040517f08c379a00000000000000000000000000000000000000000000000000000000081526004016103ae90610bb0565b60405180910390fd5b8134101580156103c957506001548311155b610408576040517f08c379a00000000000000000000000000000000000000000000000000000000081526004016103ff90610bd0565b60405180910390fd5b8060040160149054906101000a900460ff161561045a576040517f08c379a000000000000000000000000000000000000000000000000000000000815260040161045190610c10565b60405180910390fd5b8060040160009054906101000a900473ffffffffffffffffffffffffffffffffffffffff1673ffffffffffffffffffffffffffffffffffffffff166108fc82600301549081150290604051600060405180830381858888f193505050501580156104c8573d6000803e3d6000fd5b507f000000000000000000000000000000000000000000000000000000000000000073ffffffffffffffffffffffffffffffffffffffff166108fc8260030154846105139190610dd5565b9081150290604051600060405180830381858888f1935050505015801561053e573d6000803e3d6000fd5b5060018160040160146101000a81548160ff0219169083151502179055508060010160009054906101000a900473ffffffffffffffffffffffffffffffffffffffff1673ffffffffffffffffffffffffffffffffffffffff166323b872dd303384600201546040518463ffffffff1660e01b81526004016105c193929190610b59565b600060405180830381600087803b1580156105db57600080fd5b505af11580156105ef573d6000803e3d6000fd5b505050503373ffffffffffffffffffffffffffffffffffffffff168160040160009054906101000a900473ffffffffffffffffffffffffffffffffffffffff1673ffffffffffffffffffffffffffffffffffffffff168260010160009054906101000a900473ffffffffffffffffffffffffffffffffffffffff1673ffffffffffffffffffffffffffffffffffffffff167f8b4c9c8a607d67b321582dd8461041b1dc2ceeca70c8b7f37f8e02095cf2e76d86856002015486600301546040516106bb93929190610cac565b60405180910390a45050600160008190555050565b60026000541415610716576040517f08c379a000000000000000000000000000000000000000000000000000000000815260040161070d90610bf0565b60405180910390fd5b600260008190555060008111610761576040517f08c379a000000000000000000000000000000000000000000000000000000000815260040161075890610b90565b60405180910390fd5b6001600081548092919061077490610e99565b91905055508273ffffffffffffffffffffffffffffffffffffffff166323b872dd3330856040518463ffffffff1660e01b81526004016107b693929190610b59565b600060405180830381600087803b1580156107d057600080fd5b505af11580156107e4573d6000803e3d6000fd5b505050506040518060c0016040528060015481526020018473ffffffffffffffffffffffffffffffffffffffff1681526020018381526020018281526020013373ffffffffffffffffffffffffffffffffffffffff168152602001600015158152506002600060015481526020019081526020016000206000820151816000015560208201518160010160006101000a81548173ffffffffffffffffffffffffffffffffffffffff021916908373ffffffffffffffffffffffffffffffffffffffff160217905550604082015181600201556060820151816003015560808201518160040160006101000a81548173ffffffffffffffffffffffffffffffffffffffff021916908373ffffffffffffffffffffffffffffffffffffffff16021790555060a08201518160040160146101000a81548160ff0219169083151502179055509050503373ffffffffffffffffffffffffffffffffffffffff168373ffffffffffffffffffffffffffffffffffffffff167f655a0cf9c8db81512be9a76dc1c5ae5380b8816ce6ad659cd61b715e2999d59a600154858560405161098d93929190610cac565b60405180910390a36001600081905550505050565b6000813590506109b181611033565b92915050565b6000813590506109c68161104a565b92915050565b6000806000606084860312156109e157600080fd5b60006109ef868287016109a2565b9350506020610a00868287016109b7565b9250506040610a11868287016109b7565b9150509250925092565b600060208284031215610a2d57600080fd5b6000610a3b848285016109b7565b91505092915050565b610a4d81610e1b565b82525050565b610a5c81610e09565b82525050565b610a6b81610e2d565b82525050565b610a7a81610e75565b82525050565b6000610a8d601f83610ce3565b9150610a9882610f40565b602082019050919050565b6000610ab0601283610ce3565b9150610abb82610f69565b602082019050919050565b6000610ad3602d83610ce3565b9150610ade82610f92565b604082019050919050565b6000610af6601f83610ce3565b9150610b0182610fe1565b602082019050919050565b6000610b19601183610ce3565b9150610b248261100a565b602082019050919050565b610b3881610e6b565b82525050565b6000602082019050610b536000830184610a44565b92915050565b6000606082019050610b6e6000830186610a53565b610b7b6020830185610a53565b610b886040830184610b2f565b949350505050565b60006020820190508181036000830152610ba981610a80565b9050919050565b60006020820190508181036000830152610bc981610aa3565b9050919050565b60006020820190508181036000830152610be981610ac6565b9050919050565b60006020820190508181036000830152610c0981610ae9565b9050919050565b60006020820190508181036000830152610c2981610b0c565b9050919050565b6000602082019050610c456000830184610b2f565b92915050565b600060c082019050610c606000830189610b2f565b610c6d6020830188610a71565b610c7a6040830187610b2f565b610c876060830186610b2f565b610c946080830185610a44565b610ca160a0830184610a62565b979650505050505050565b6000606082019050610cc16000830186610b2f565b610cce6020830185610b2f565b610cdb6040830184610b2f565b949350505050565b600082825260208201905092915050565b6000610cff82610e6b565b9150610d0a83610e6b565b9250827fffffffffffffffffffffffffffffffffffffffffffffffffffffffffffffffff03821115610d3f57610d3e610ee2565b5b828201905092915050565b6000610d5582610e6b565b9150610d6083610e6b565b925082610d7057610d6f610f11565b5b828204905092915050565b6000610d8682610e6b565b9150610d9183610e6b565b9250817fffffffffffffffffffffffffffffffffffffffffffffffffffffffffffffffff0483118215151615610dca57610dc9610ee2565b5b828202905092915050565b6000610de082610e6b565b9150610deb83610e6b565b925082821015610dfe57610dfd610ee2565b5b828203905092915050565b6000610e1482610e4b565b9050919050565b6000610e2682610e4b565b9050919050565b60008115159050919050565b6000610e4482610e09565b9050919050565b600073ffffffffffffffffffffffffffffffffffffffff82169050919050565b6000819050919050565b6000610e8082610e87565b9050919050565b6000610e9282610e4b565b9050919050565b6000610ea482610e6b565b91507fffffffffffffffffffffffffffffffffffffffffffffffffffffffffffffffff821415610ed757610ed6610ee2565b5b600182019050919050565b7f4e487b7100000000000000000000000000000000000000000000000000000000600052601160045260246000fd5b7f4e487b7100000000000000000000000000000000000000000000000000000000600052601260045260246000fd5b7f5072696365206d7573742062652067726561746572207468616e207a65726f00600082015250565b7f4974656d20646f65736e27742065786973740000000000000000000000000000600082015250565b7f4e6f7420656e6f75676820746f20636f766572206974656d207072696365206160008201527f6e64206d61726b65742066656500000000000000000000000000000000000000602082015250565b7f5265656e7472616e637947756172643a207265656e7472616e742063616c6c00600082015250565b7f4974656d20616c726561647920736f6c64000000000000000000000000000000600082015250565b61103c81610e39565b811461104757600080fd5b50565b61105381610e6b565b811461105e57600080fd5b5056fea264697066735822122052a1e7be695e8fb123179500c0efa6dabe0c6891701cae716cc242a5d1e4249464736f6c63430008040033",
  "linkReferences": {},
  "deployedLinkReferences": {}
}